{
  "_format": "hh-sol-artifact-1",
  "contractName": "ERC20Token",
  "sourceName": "contracts/token/Token.sol",
  "abi": [
    {
      "inputs": [
        {
          "internalType": "string",
          "name": "tokenName",
          "type": "string"
        },
        {
          "internalType": "string",
          "name": "tokenSymbol",
          "type": "string"
        },
        {
          "internalType": "uint256",
          "name": "maximumCap",
          "type": "uint256"
        }
      ],
      "stateMutability": "nonpayable",
      "type": "constructor"
    },
    {
      "inputs": [
        {
          "internalType": "uint256",
          "name": "increasedSupply",
          "type": "uint256"
        },
        {
          "internalType": "uint256",
          "name": "cap",
          "type": "uint256"
        }
      ],
      "name": "ERC20ExceededCap",
      "type": "error"
    },
    {
      "inputs": [
        {
          "internalType": "address",
          "name": "spender",
          "type": "address"
        },
        {
          "internalType": "uint256",
          "name": "allowance",
          "type": "uint256"
        },
        {
          "internalType": "uint256",
          "name": "needed",
          "type": "uint256"
        }
      ],
      "name": "ERC20InsufficientAllowance",
      "type": "error"
    },
    {
      "inputs": [
        {
          "internalType": "address",
          "name": "sender",
          "type": "address"
        },
        {
          "internalType": "uint256",
          "name": "balance",
          "type": "uint256"
        },
        {
          "internalType": "uint256",
          "name": "needed",
          "type": "uint256"
        }
      ],
      "name": "ERC20InsufficientBalance",
      "type": "error"
    },
    {
      "inputs": [
        {
          "internalType": "address",
          "name": "approver",
          "type": "address"
        }
      ],
      "name": "ERC20InvalidApprover",
      "type": "error"
    },
    {
      "inputs": [
        {
          "internalType": "uint256",
          "name": "cap",
          "type": "uint256"
        }
      ],
      "name": "ERC20InvalidCap",
      "type": "error"
    },
    {
      "inputs": [
        {
          "internalType": "address",
          "name": "receiver",
          "type": "address"
        }
      ],
      "name": "ERC20InvalidReceiver",
      "type": "error"
    },
    {
      "inputs": [
        {
          "internalType": "address",
          "name": "sender",
          "type": "address"
        }
      ],
      "name": "ERC20InvalidSender",
      "type": "error"
    },
    {
      "inputs": [
        {
          "internalType": "address",
          "name": "spender",
          "type": "address"
        }
      ],
      "name": "ERC20InvalidSpender",
      "type": "error"
    },
    {
      "inputs": [
        {
          "internalType": "address",
          "name": "owner",
          "type": "address"
        }
      ],
      "name": "OwnableInvalidOwner",
      "type": "error"
    },
    {
      "inputs": [
        {
          "internalType": "address",
          "name": "account",
          "type": "address"
        }
      ],
      "name": "OwnableUnauthorizedAccount",
      "type": "error"
    },
    {
      "anonymous": false,
      "inputs": [
        {
          "indexed": true,
          "internalType": "address",
          "name": "owner",
          "type": "address"
        },
        {
          "indexed": true,
          "internalType": "address",
          "name": "spender",
          "type": "address"
        },
        {
          "indexed": false,
          "internalType": "uint256",
          "name": "value",
          "type": "uint256"
        }
      ],
      "name": "Approval",
      "type": "event"
    },
    {
      "anonymous": false,
      "inputs": [
        {
          "indexed": true,
          "internalType": "address",
          "name": "token",
          "type": "address"
        },
        {
          "indexed": false,
          "internalType": "string",
          "name": "name",
          "type": "string"
        },
        {
          "indexed": false,
          "internalType": "string",
          "name": "symbol",
          "type": "string"
        }
      ],
      "name": "ERC20TokenCreated",
      "type": "event"
    },
    {
      "anonymous": false,
      "inputs": [
        {
          "indexed": true,
          "internalType": "address",
          "name": "previousOwner",
          "type": "address"
        },
        {
          "indexed": true,
          "internalType": "address",
          "name": "newOwner",
          "type": "address"
        }
      ],
      "name": "OwnershipTransferred",
      "type": "event"
    },
    {
      "anonymous": false,
      "inputs": [
        {
          "indexed": true,
          "internalType": "address",
          "name": "from",
          "type": "address"
        },
        {
          "indexed": true,
          "internalType": "address",
          "name": "to",
          "type": "address"
        },
        {
          "indexed": false,
          "internalType": "uint256",
          "name": "value",
          "type": "uint256"
        }
      ],
      "name": "Transfer",
      "type": "event"
    },
    {
      "inputs": [
        {
          "internalType": "address",
          "name": "owner",
          "type": "address"
        },
        {
          "internalType": "address",
          "name": "spender",
          "type": "address"
        }
      ],
      "name": "allowance",
      "outputs": [
        {
          "internalType": "uint256",
          "name": "",
          "type": "uint256"
        }
      ],
      "stateMutability": "view",
      "type": "function"
    },
    {
      "inputs": [
        {
          "internalType": "address",
          "name": "spender",
          "type": "address"
        },
        {
          "internalType": "uint256",
          "name": "value",
          "type": "uint256"
        }
      ],
      "name": "approve",
      "outputs": [
        {
          "internalType": "bool",
          "name": "",
          "type": "bool"
        }
      ],
      "stateMutability": "nonpayable",
      "type": "function"
    },
    {
      "inputs": [
        {
          "internalType": "address",
          "name": "account",
          "type": "address"
        }
      ],
      "name": "balanceOf",
      "outputs": [
        {
          "internalType": "uint256",
          "name": "",
          "type": "uint256"
        }
      ],
      "stateMutability": "view",
      "type": "function"
    },
    {
      "inputs": [
        {
          "internalType": "uint256",
          "name": "value",
          "type": "uint256"
        }
      ],
      "name": "burn",
      "outputs": [],
      "stateMutability": "nonpayable",
      "type": "function"
    },
    {
      "inputs": [
        {
          "internalType": "address",
          "name": "account",
          "type": "address"
        },
        {
          "internalType": "uint256",
          "name": "value",
          "type": "uint256"
        }
      ],
      "name": "burnFrom",
      "outputs": [],
      "stateMutability": "nonpayable",
      "type": "function"
    },
    {
      "inputs": [],
      "name": "cap",
      "outputs": [
        {
          "internalType": "uint256",
          "name": "",
          "type": "uint256"
        }
      ],
      "stateMutability": "view",
      "type": "function"
    },
    {
      "inputs": [],
      "name": "decimals",
      "outputs": [
        {
          "internalType": "uint8",
          "name": "",
          "type": "uint8"
        }
      ],
      "stateMutability": "view",
      "type": "function"
    },
    {
      "inputs": [
        {
          "internalType": "address",
          "name": "account",
          "type": "address"
        },
        {
          "internalType": "uint256",
          "name": "amount",
          "type": "uint256"
        }
      ],
      "name": "mint",
      "outputs": [
        {
          "internalType": "bool",
          "name": "",
          "type": "bool"
        }
      ],
      "stateMutability": "nonpayable",
      "type": "function"
    },
    {
      "inputs": [],
      "name": "name",
      "outputs": [
        {
          "internalType": "string",
          "name": "",
          "type": "string"
        }
      ],
      "stateMutability": "view",
      "type": "function"
    },
    {
      "inputs": [],
      "name": "owner",
      "outputs": [
        {
          "internalType": "address",
          "name": "",
          "type": "address"
        }
      ],
      "stateMutability": "view",
      "type": "function"
    },
    {
      "inputs": [],
      "name": "renounceOwnership",
      "outputs": [],
      "stateMutability": "nonpayable",
      "type": "function"
    },
    {
      "inputs": [],
      "name": "symbol",
      "outputs": [
        {
          "internalType": "string",
          "name": "",
          "type": "string"
        }
      ],
      "stateMutability": "view",
      "type": "function"
    },
    {
      "inputs": [],
      "name": "totalSupply",
      "outputs": [
        {
          "internalType": "uint256",
          "name": "",
          "type": "uint256"
        }
      ],
      "stateMutability": "view",
      "type": "function"
    },
    {
      "inputs": [
        {
          "internalType": "address",
          "name": "to",
          "type": "address"
        },
        {
          "internalType": "uint256",
          "name": "value",
          "type": "uint256"
        }
      ],
      "name": "transfer",
      "outputs": [
        {
          "internalType": "bool",
          "name": "",
          "type": "bool"
        }
      ],
      "stateMutability": "nonpayable",
      "type": "function"
    },
    {
      "inputs": [
        {
          "internalType": "address",
          "name": "from",
          "type": "address"
        },
        {
          "internalType": "address",
          "name": "to",
          "type": "address"
        },
        {
          "internalType": "uint256",
          "name": "value",
          "type": "uint256"
        }
      ],
      "name": "transferFrom",
      "outputs": [
        {
          "internalType": "bool",
          "name": "",
          "type": "bool"
        }
      ],
      "stateMutability": "nonpayable",
      "type": "function"
    },
    {
      "inputs": [
        {
          "internalType": "address",
          "name": "newOwner",
          "type": "address"
        }
      ],
      "name": "transferOwnership",
      "outputs": [],
      "stateMutability": "nonpayable",
      "type": "function"
    }
  ],
  "bytecode": "0x60a0604052346104b05761107780380380610019816104b5565b92833981016060828203126104b05781516001600160401b0381116104b057816100449184016104fd565b60208301519091906001600160401b0381116104b0576040916100689185016104fd565b920151670de0b6b3a764000061007e818361054d565b83516001600160401b0381116103ba57600354600181811c911680156104a6575b602082101461039a57601f8111610441575b50806020601f82116001146103db576000916103d0575b508160011b916000199060031b1c1916176003555b84516001600160401b0381116103ba57600454600181811c911680156103b0575b602082101461039a57601f8111610335575b50806020601f82116001146102cf576000916102c4575b508160011b916000199060031b1c1916176004555b80156102ae5760805233156102985760058054336001600160a01b03198216811790925561019d93600a9290916001600160a01b03167f8be0079c531659141344cd1fd0a4f28419497f9722a3daafe3b4186f6b6457e0600080a30461054d565b60006002548281018091116102845760025550336000526000602052604060002081815401905560405190815260007fddf252ad1be2c89b69c2b068fc378daa952ba7f163c4a11628f55a4df523b3ef60203393a360805160025481811161026d57837f6a65a003398aad49f93f7b224939561ce683313a6a5e8664f24e698446b55d9361023c8561024b604051928392604084526040840190610576565b82810360208401523095610576565b0390a2604051610adb908161059c82396080518181816104d0015261058c0152f35b63279e7e1560e21b60005260045260245260446000fd5b634e487b7160e01b82526011600452602482fd5b631e4fbdf760e01b600052600060045260246000fd5b63392e1e2760e01b600052600060045260246000fd5b905086015138610127565b600460009081528181209250601f198416905b81811061031d57509083600194939210610304575b5050811b0160045561013c565b88015160001960f88460031b161c1916905538806102f7565b9192602060018192868d0151815501940192016102e2565b60046000527f8a35acfbc15ff81a39ae7d344fd709f28e8600b4aa8c65c6b64bfe7fe36bd19b601f830160051c81019160208410610390575b601f0160051c01905b8181106103845750610110565b60008155600101610377565b909150819061036e565b634e487b7160e01b600052602260045260246000fd5b90607f16906100fe565b634e487b7160e01b600052604160045260246000fd5b9050850151386100c8565b600360009081528181209250601f198416905b81811061042957509083600194939210610410575b5050811b016003556100dd565b87015160001960f88460031b161c191690553880610403565b9192602060018192868c0151815501940192016103ee565b60036000527fc2575a0e9e593c00f959f8c92f12db2869c3395a3b0502d05e2516446f71f85b601f830160051c8101916020841061049c575b601f0160051c01905b81811061049057506100b1565b60008155600101610483565b909150819061047a565b90607f169061009f565b600080fd5b6040519190601f01601f191682016001600160401b038111838210176103ba57604052565b60005b8381106104ed5750506000910152565b81810151838201526020016104dd565b81601f820112156104b05780516001600160401b0381116103ba5761052b601f8201601f19166020016104b5565b92818452602082840101116104b05761054a91602080850191016104da565b90565b8181029291811591840414171561056057565b634e487b7160e01b600052601160045260246000fd5b9060209161058f815180928185528580860191016104da565b601f01601f191601019056fe608080604052600436101561001357600080fd5b60003560e01c90816306fdde031461070557508063095ea7b31461062157806318160ddd1461060357806323b872dd146105cb578063313ce567146105af578063355274ea1461057457806340c10f191461044557806342966c681461042857806370a08231146103ee578063715018a61461038657806379cc6790146103545780638da5cb5b1461032d57806395d89b411461020c578063a9059cbb146101db578063dd62ed3e146101835763f2fde38b146100cf57600080fd5b3461017e57602036600319011261017e576001600160a01b036100f0610821565b6100f86109e2565b16801561014f576001600160a01b036005548273ffffffffffffffffffffffffffffffffffffffff19821617600555167f8be0079c531659141344cd1fd0a4f28419497f9722a3daafe3b4186f6b6457e0600080a3005b7f1e4fbdf700000000000000000000000000000000000000000000000000000000600052600060045260246000fd5b600080fd5b3461017e57604036600319011261017e5761019c610821565b6001600160a01b036101ac610837565b911660005260016020526001600160a01b03604060002091166000526020526020604060002054604051908152f35b3461017e57604036600319011261017e576102016101f7610821565b602435903361091a565b602060405160018152f35b3461017e57600036600319011261017e5760405160006004548060011c90600181168015610323575b60208310811461030f578285529081156102f3575060011461029c575b50819003601f01601f191681019067ffffffffffffffff82118183101761028657610282829182604052826107d8565b0390f35b634e487b7160e01b600052604160045260246000fd5b905060046000527f8a35acfbc15ff81a39ae7d344fd709f28e8600b4aa8c65c6b64bfe7fe36bd19b6000905b8282106102dd57506020915082010182610252565b60018160209254838588010152019101906102c8565b90506020925060ff191682840152151560051b82010182610252565b602484634e487b7160e01b81526022600452fd5b91607f1691610235565b3461017e57600036600319011261017e5760206001600160a01b0360055416604051908152f35b3461017e57604036600319011261017e57610384610370610821565b6024359061037f82338361084d565b610a24565b005b3461017e57600036600319011261017e5761039f6109e2565b60006001600160a01b0360055473ffffffffffffffffffffffffffffffffffffffff198116600555167f8be0079c531659141344cd1fd0a4f28419497f9722a3daafe3b4186f6b6457e08280a3005b3461017e57602036600319011261017e576001600160a01b0361040f610821565b1660005260006020526020604060002054604051908152f35b3461017e57602036600319011261017e5761038460043533610a24565b3461017e57604036600319011261017e5761045e610821565b6001600160a01b03602435916104726109e2565b168015610545576002549180830180931161052f576020926002557fddf252ad1be2c89b69c2b068fc378daa952ba7f163c4a11628f55a4df523b3ef600093849284845283825260408420818154019055604051908152a3600254907f000000000000000000000000000000000000000000000000000000000000000080831161050157602060405160018152f35b6044927f9e79f854000000000000000000000000000000000000000000000000000000008352600452602452fd5b634e487b7160e01b600052601160045260246000fd5b7fec442f0500000000000000000000000000000000000000000000000000000000600052600060045260246000fd5b3461017e57600036600319011261017e5760206040517f00000000000000000000000000000000000000000000000000000000000000008152f35b3461017e57600036600319011261017e57602060405160128152f35b3461017e57606036600319011261017e576102016105e7610821565b6105ef610837565b604435916105fe83338361084d565b61091a565b3461017e57600036600319011261017e576020600254604051908152f35b3461017e57604036600319011261017e5761063a610821565b6024359033156106d6576001600160a01b03169081156106a757336000526001602052604060002082600052602052806040600020556040519081527f8c5be1e5ebec7d5bd14f71427d1e84f3dd0314c0f7b2291e5b200ac8c7c3b92560203392a3602060405160018152f35b7f94280d6200000000000000000000000000000000000000000000000000000000600052600060045260246000fd5b7fe602df0500000000000000000000000000000000000000000000000000000000600052600060045260246000fd5b3461017e57600036600319011261017e5760006003548060011c906001811680156107ce575b60208310811461030f578285529081156102f357506001146107775750819003601f01601f191681019067ffffffffffffffff82118183101761028657610282829182604052826107d8565b905060036000527fc2575a0e9e593c00f959f8c92f12db2869c3395a3b0502d05e2516446f71f85b6000905b8282106107b857506020915082010182610252565b60018160209254838588010152019101906107a3565b91607f169161072b565b91909160208152825180602083015260005b81811061080b575060409293506000838284010152601f8019910116010190565b80602080928701015160408286010152016107ea565b600435906001600160a01b038216820361017e57565b602435906001600160a01b038216820361017e57565b6001600160a01b0390929192169182600052600160205260406000206001600160a01b038216600052602052604060002054926000198410610890575b50505050565b8284106108db5780156106d6576001600160a01b038216156106a75760005260016020526001600160a01b03604060002091166000526020526040600020910390553880808061088a565b506001600160a01b0383917ffb8f41b2000000000000000000000000000000000000000000000000000000006000521660045260245260445260646000fd5b6001600160a01b03169081156109b3576001600160a01b03169182156105455760008281528060205260408120548281106109995791604082827fddf252ad1be2c89b69c2b068fc378daa952ba7f163c4a11628f55a4df523b3ef958760209652828652038282205586815280845220818154019055604051908152a3565b60649363391434e360e21b83949352600452602452604452fd5b7f96c6fd1e00000000000000000000000000000000000000000000000000000000600052600060045260246000fd5b6001600160a01b036005541633036109f657565b7f118cdaa7000000000000000000000000000000000000000000000000000000006000523360045260246000fd5b6001600160a01b031680156109b357600091818352826020526040832054818110610a8c57817fddf252ad1be2c89b69c2b068fc378daa952ba7f163c4a11628f55a4df523b3ef926020928587528684520360408620558060025403600255604051908152a3565b839263391434e360e21b60649552600452602452604452fdfea26469706673582212201f498a7141d42e58cfbb52a1e2d3342c89b01a655b99c193d925f21838f688a664736f6c634300081c0033",
  "linkReferences": {},
  "deployedLinkReferences": {}
}