{
  "_format": "hh-sol-artifact-1",
  "contractName": "ERC20SwapPool",
  "sourceName": "contracts/pool/ERC20/ERC20SwapPool.sol",
  "abi": [
    {
      "inputs": [
        {
          "internalType": "address",
          "name": "_token1",
          "type": "address"
        },
        {
          "internalType": "address",
          "name": "_token2",
          "type": "address"
        },
        {
          "internalType": "uint256",
          "name": "_fee",
          "type": "uint256"
        },
        {
          "internalType": "string",
          "name": "_lpTokenName",
          "type": "string"
        },
        {
          "internalType": "string",
          "name": "_lpTokenSymbol",
          "type": "string"
        }
      ],
      "stateMutability": "nonpayable",
      "type": "constructor"
    },
    {
      "inputs": [
        {
          "internalType": "string",
          "name": "description",
          "type": "string"
        }
      ],
      "name": "ERC20SwapPool__FeeMoreThanThreshold",
      "type": "error"
    },
    {
      "inputs": [
        {
          "internalType": "string",
          "name": "description",
          "type": "string"
        }
      ],
      "name": "ERC20SwapPool__InsufficientReserves",
      "type": "error"
    },
    {
      "inputs": [
        {
          "internalType": "string",
          "name": "description",
          "type": "string"
        }
      ],
      "name": "ERC20SwapPool__InvalidAmount",
      "type": "error"
    },
    {
      "inputs": [
        {
          "internalType": "string",
          "name": "description",
          "type": "string"
        }
      ],
      "name": "ERC20SwapPool__InvalidTokenAddress",
      "type": "error"
    },
    {
      "inputs": [
        {
          "internalType": "string",
          "name": "description",
          "type": "string"
        }
      ],
      "name": "ERC20SwapPool__InvalidTokenRatio",
      "type": "error"
    },
    {
      "inputs": [
        {
          "internalType": "string",
          "name": "description",
          "type": "string"
        }
      ],
      "name": "ERC20SwapPool__OverflowInRatioCheck",
      "type": "error"
    },
    {
      "inputs": [
        {
          "internalType": "string",
          "name": "description",
          "type": "string"
        }
      ],
      "name": "ERC20SwapPool__Slippage",
      "type": "error"
    },
    {
      "inputs": [
        {
          "internalType": "string",
          "name": "description",
          "type": "string"
        }
      ],
      "name": "ERC20SwapPool__TransferFailed",
      "type": "error"
    },
    {
      "inputs": [
        {
          "internalType": "string",
          "name": "description",
          "type": "string"
        }
      ],
      "name": "ERC20SwapPool__ZeroLiquidityToken",
      "type": "error"
    },
    {
      "inputs": [],
      "name": "ReentrancyGuardReentrantCall",
      "type": "error"
    },
    {
      "anonymous": false,
      "inputs": [
        {
          "indexed": true,
          "internalType": "address",
          "name": "pool",
          "type": "address"
        },
        {
          "indexed": true,
          "internalType": "address",
          "name": "token1",
          "type": "address"
        },
        {
          "indexed": true,
          "internalType": "address",
          "name": "token2",
          "type": "address"
        },
        {
          "indexed": false,
          "internalType": "uint256",
          "name": "tokenAmount1",
          "type": "uint256"
        },
        {
          "indexed": false,
          "internalType": "uint256",
          "name": "tokenAmount2",
          "type": "uint256"
        },
        {
          "indexed": false,
          "internalType": "uint256",
          "name": "mintedLpTokens",
          "type": "uint256"
        },
        {
          "indexed": false,
          "internalType": "uint256",
          "name": "reserveToken1",
          "type": "uint256"
        },
        {
          "indexed": false,
          "internalType": "uint256",
          "name": "reserveToken2",
          "type": "uint256"
        },
        {
          "indexed": false,
          "internalType": "uint256",
          "name": "timestamp",
          "type": "uint256"
        },
        {
          "indexed": false,
          "internalType": "address",
          "name": "sender",
          "type": "address"
        }
      ],
      "name": "LiquidityAdded",
      "type": "event"
    },
    {
      "anonymous": false,
      "inputs": [
        {
          "indexed": true,
          "internalType": "address",
          "name": "pool",
          "type": "address"
        },
        {
          "indexed": true,
          "internalType": "address",
          "name": "token1",
          "type": "address"
        },
        {
          "indexed": true,
          "internalType": "address",
          "name": "token2",
          "type": "address"
        },
        {
          "indexed": false,
          "internalType": "uint256",
          "name": "liquidityPoolTokens",
          "type": "uint256"
        },
        {
          "indexed": false,
          "internalType": "uint256",
          "name": "tokenAmount1",
          "type": "uint256"
        },
        {
          "indexed": false,
          "internalType": "uint256",
          "name": "tokenAmount2",
          "type": "uint256"
        },
        {
          "indexed": false,
          "internalType": "uint256",
          "name": "reserveToken1",
          "type": "uint256"
        },
        {
          "indexed": false,
          "internalType": "uint256",
          "name": "reserveToken2",
          "type": "uint256"
        },
        {
          "indexed": false,
          "internalType": "uint256",
          "name": "timestamp",
          "type": "uint256"
        },
        {
          "indexed": false,
          "internalType": "address",
          "name": "sender",
          "type": "address"
        }
      ],
      "name": "LiquidityRemoved",
      "type": "event"
    },
    {
      "anonymous": false,
      "inputs": [
        {
          "indexed": true,
          "internalType": "address",
          "name": "pool",
          "type": "address"
        },
        {
          "indexed": true,
          "internalType": "address",
          "name": "token1",
          "type": "address"
        },
        {
          "indexed": true,
          "internalType": "address",
          "name": "token2",
          "type": "address"
        },
        {
          "indexed": false,
          "internalType": "address",
          "name": "lpToken",
          "type": "address"
        },
        {
          "indexed": false,
          "internalType": "string",
          "name": "lpTokenName",
          "type": "string"
        },
        {
          "indexed": false,
          "internalType": "string",
          "name": "lpTokenSymbol",
          "type": "string"
        },
        {
          "indexed": false,
          "internalType": "uint256",
          "name": "fee",
          "type": "uint256"
        }
      ],
      "name": "PoolCreated",
      "type": "event"
    },
    {
      "anonymous": false,
      "inputs": [
        {
          "indexed": false,
          "internalType": "address",
          "name": "pool",
          "type": "address"
        },
        {
          "indexed": true,
          "internalType": "address",
          "name": "tokenIn",
          "type": "address"
        },
        {
          "indexed": true,
          "internalType": "address",
          "name": "tokenOut",
          "type": "address"
        },
        {
          "indexed": false,
          "internalType": "uint256",
          "name": "amountIn",
          "type": "uint256"
        },
        {
          "indexed": false,
          "internalType": "uint256",
          "name": "amountOut",
          "type": "uint256"
        },
        {
          "indexed": false,
          "internalType": "uint256",
          "name": "reserveToken1",
          "type": "uint256"
        },
        {
          "indexed": false,
          "internalType": "uint256",
          "name": "reserveToken2",
          "type": "uint256"
        },
        {
          "indexed": false,
          "internalType": "uint256",
          "name": "timestamp",
          "type": "uint256"
        },
        {
          "indexed": true,
          "internalType": "address",
          "name": "sender",
          "type": "address"
        }
      ],
      "name": "TokenSwapped",
      "type": "event"
    },
    {
      "inputs": [
        {
          "internalType": "uint256",
          "name": "amountADesired",
          "type": "uint256"
        },
        {
          "internalType": "uint256",
          "name": "amountBDesired",
          "type": "uint256"
        },
        {
          "internalType": "uint256",
          "name": "amountAMin",
          "type": "uint256"
        },
        {
          "internalType": "uint256",
          "name": "amountBMin",
          "type": "uint256"
        }
      ],
      "name": "addLiquidity",
      "outputs": [
        {
          "internalType": "uint256",
          "name": "",
          "type": "uint256"
        }
      ],
      "stateMutability": "nonpayable",
      "type": "function"
    },
    {
      "inputs": [
        {
          "internalType": "uint256",
          "name": "amountIn",
          "type": "uint256"
        },
        {
          "internalType": "address",
          "name": "tokenIn",
          "type": "address"
        }
      ],
      "name": "getAmountOut",
      "outputs": [
        {
          "internalType": "address",
          "name": "",
          "type": "address"
        },
        {
          "internalType": "uint256",
          "name": "",
          "type": "uint256"
        },
        {
          "internalType": "uint256",
          "name": "",
          "type": "uint256"
        },
        {
          "internalType": "uint256",
          "name": "",
          "type": "uint256"
        },
        {
          "internalType": "bool",
          "name": "",
          "type": "bool"
        }
      ],
      "stateMutability": "view",
      "type": "function"
    },
    {
      "inputs": [
        {
          "internalType": "uint256",
          "name": "liquidityPoolTokens",
          "type": "uint256"
        }
      ],
      "name": "getAmountsOnRemovingLiquidity",
      "outputs": [
        {
          "internalType": "uint256",
          "name": "amountTokenA",
          "type": "uint256"
        },
        {
          "internalType": "uint256",
          "name": "amountTokenB",
          "type": "uint256"
        }
      ],
      "stateMutability": "view",
      "type": "function"
    },
    {
      "inputs": [],
      "name": "getFee",
      "outputs": [
        {
          "internalType": "uint256",
          "name": "",
          "type": "uint256"
        }
      ],
      "stateMutability": "view",
      "type": "function"
    },
    {
      "inputs": [],
      "name": "getLpToken",
      "outputs": [
        {
          "internalType": "address",
          "name": "",
          "type": "address"
        }
      ],
      "stateMutability": "view",
      "type": "function"
    },
    {
      "inputs": [],
      "name": "getReserves",
      "outputs": [
        {
          "internalType": "uint256",
          "name": "",
          "type": "uint256"
        },
        {
          "internalType": "uint256",
          "name": "",
          "type": "uint256"
        }
      ],
      "stateMutability": "view",
      "type": "function"
    },
    {
      "inputs": [],
      "name": "getTokens",
      "outputs": [
        {
          "internalType": "address",
          "name": "",
          "type": "address"
        },
        {
          "internalType": "address",
          "name": "",
          "type": "address"
        }
      ],
      "stateMutability": "view",
      "type": "function"
    },
    {
      "inputs": [
        {
          "internalType": "uint256",
          "name": "liquidityPoolTokens",
          "type": "uint256"
        }
      ],
      "name": "removeLiquidity",
      "outputs": [
        {
          "internalType": "uint256",
          "name": "amountTokenA",
          "type": "uint256"
        },
        {
          "internalType": "uint256",
          "name": "amountTokenB",
          "type": "uint256"
        }
      ],
      "stateMutability": "nonpayable",
      "type": "function"
    },
    {
      "inputs": [
        {
          "internalType": "address",
          "name": "_tokenIn",
          "type": "address"
        },
        {
          "internalType": "uint256",
          "name": "amountIn",
          "type": "uint256"
        },
        {
          "internalType": "uint256",
          "name": "minAmountOut",
          "type": "uint256"
        }
      ],
      "name": "swap",
      "outputs": [
        {
          "internalType": "bool",
          "name": "",
          "type": "bool"
        }
      ],
      "stateMutability": "nonpayable",
      "type": "function"
    }
  ],
  "bytecode": "0x60e0604052346102da5761278980380380610019816102df565b928339810160a0828203126102da5761003182610304565b9161003e60208201610304565b60408201516060830151919290916001600160401b0381116102da578461006691830161033b565b60808201519094906001600160401b0381116102da57610086920161033b565b6001600055936001600160a01b031690811580156102c9575b6102845760c8811161023e576001556080526001600160a01b031660a052604051610e53808201906001600160401b03821183831017610228578291610104916119368439604081526100f5604082018661038b565b9060208183039101528561038b565b03906000f090811561021c578160c0527ff73ae0cb6329ad0f1ddd210b46780f12a2fe8303af76715393b4eb533460f19460018060a01b03608051169261018460018060a01b0360a0511695610176600154956040519460018060a01b0316855260806020860152608085019061038b565b90838203604085015261038b565b9260608201528030930390a460405161158590816103b18239608051818181610174015281816105ed015281816106cb015281816109ca01528181610c440152611166015260a0518181816101d601528181610619015281816106ed0152818161099f01528181610ca1015281816111bb01526112f1015260c05181818161021801528181610b1401528181610f30015261100c0152f35b6040513d6000823e3d90fd5b634e487b7160e01b600052604160045260246000fd5b60405163049f6f6b60e11b815260206004820152601a60248201527f4665652063616e6e6f74206265206d6f7265207468616e2032250000000000006044820152606490fd5b604051625afd6560e51b815260206004820152601560248201527f496e76616c696420546f6b656e204164647265737300000000000000000000006044820152606490fd5b506001600160a01b0383161561009f565b600080fd5b6040519190601f01601f191682016001600160401b0381118382101761022857604052565b51906001600160a01b03821682036102da57565b60005b83811061032b5750506000910152565b818101518382015260200161031b565b81601f820112156102da5780516001600160401b03811161022857610369601f8201601f19166020016102df565b92818452602082840101116102da576103889160208085019101610318565b90565b906020916103a481518092818552858086019101610318565b601f01601f191601019056fe608080604052600436101561001357600080fd5b600090813560e01c9081630902f1ac14610f7f5750806324be637514610f545780638214f5a414610f105780639c8f9f2314610ae75780639f1d0f5914610640578063aa6ca808146105ce578063aebf3e4114610103578063ced72f87146100e55763f140a35a1461008457600080fd5b346100e25760403660031901126100e257602435906001600160a01b03821682036100e25760a06100b78360043561115b565b926001600160a01b036040939293519516855260208501526040840152606083015215156080820152f35b80fd5b50346100e257806003193601126100e2576020600154604051908152f35b50346100e25760803660031901126100e2576024356004356101236113b9565b600254916003548315806105c6575b156104fa57829180935b159081156104f1575b506104ab576040516323b872dd60e01b8152336004820152306024820152604481018390526001600160a01b037f00000000000000000000000000000000000000000000000000000000000000001692906020816064818a885af180156104a057610483575b506040516323b872dd60e01b8152336004820152306024820152604481018590526001600160a01b037f00000000000000000000000000000000000000000000000000000000000000001694906020816064818b8a5af180156104785761045b575b506001600160a01b037f000000000000000000000000000000000000000000000000000000000000000016956040516318160ddd60e01b81526020816004818b5afa90811561038b578991610424575b50806103f457506102766102718385611128565b611416565b965b8715610396576040517f40c10f190000000000000000000000000000000000000000000000000000000081523360048201526024810189905290602090829060449082908d905af1801561038b57926103536103108261030a887f8da739356d469e79ef7a48dc1377edd0fe3a005ce54cb8f6f6aee1fefc068e599760209f9c9a9760019e9c9a61035f575b5061111b565b9661111b565b600286905560038190556040805194855260208501939093529183018a9052606083019490945260808201524260a08201523360c08201523092819060e0820190565b0390a455604051908152f35b61037f9060203d8111610384575b6103778183610fa8565b810190611103565b610304565b503d61036d565b6040513d8b823e3d90fd5b60646040517f05f9400c00000000000000000000000000000000000000000000000000000000815260206004820152601860248201527f43616e206e6f74206d696e742030204c5020746f6b656e7300000000000000006044820152fd5b6104158561040961040e85610409868a611128565b61113b565b9386611128565b90818082109118021896610278565b90506020813d602011610453575b8161043f60209383610fa8565b8101031261044e57513861025d565b600080fd5b3d9150610432565b6104739060203d602011610384576103778183610fa8565b61020d565b6040513d8a823e3d90fd5b61049b9060203d602011610384576103778183610fa8565b6101ab565b6040513d89823e3d90fd5b604051633b08b6c760e11b815260206004820181905260248201527f416d6f756e74206d7573742062652067726561746572207468616e207a65726f6044820152606490fd5b90501538610145565b6105058185856113f4565b9180831161056357606435831061051e5783929361013c565b6064604051633b08b6c760e11b815260206004820152601b60248201527f496e73756666696369656e7420746f6b656e204220616d6f756e7400000000006044820152fd5b91506105708482846113f4565b60443581106105815791809361013c565b6064604051633b08b6c760e11b815260206004820152601b60248201527f496e73756666696369656e7420746f6b656e204120616d6f756e7400000000006044820152fd5b508015610132565b50346100e257806003193601126100e257604080516001600160a01b037f00000000000000000000000000000000000000000000000000000000000000001681526001600160a01b037f0000000000000000000000000000000000000000000000000000000000000000166020820152f35b50346100e25760603660031901126100e257600435906001600160a01b03821682036100e257602435916106726113b9565b82156104ab57610682908361115b565b909295935060443586108015610adf575b610a815781158015610a79575b610a34578286116109ef578591849115610980576106c892916106c29161111b565b926110e0565b917f0000000000000000000000000000000000000000000000000000000000000000927f00000000000000000000000000000000000000000000000000000000000000005b33300361091a5760405163a9059cbb60e01b8152306004820152602481018490526020816044818a6001600160a01b038b165af19081156104a05787916108fb575b505b15610890576002849055600382905560405163a9059cbb60e01b8152336004820152602481018890526001600160a01b039190911693906020816044818a895af19081156104a0578791610871575b5015610806576001966040519330855260208501526040840152606083015260808201524260a08201527f29522b876d2464a4f82602398bfce827d9352593b1896a8a4340b311802880cf60c06001600160a01b0333951692a455602060405160018152f35b6084604051630e8286e160e11b815260206004820152603360248201527f53776170206661696c65643a2043616e206e6f74207472616e73666572206f7560448201527f7470757420616d6f756e7420746f2075736572000000000000000000000000006064820152fd5b61088a915060203d602011610384576103778183610fa8565b386107a0565b6084604051630e8286e160e11b815260206004820152603260248201527f53776170206661696c65643a2043616e206e6f74207472616e7366657220696e60448201527f70757420616d6f756e7420746f20706f6f6c00000000000000000000000000006064820152fd5b610914915060203d602011610384576103778183610fa8565b3861074f565b6040516323b872dd60e01b8152336004820152306024820152604481018490526020816064818a6001600160a01b038b165af19081156104a0578791610961575b50610751565b61097a915060203d602011610384576103778183610fa8565b3861095b565b926109949261098e916110e0565b9261111b565b916001600160a01b037f000000000000000000000000000000000000000000000000000000000000000016926001600160a01b037f00000000000000000000000000000000000000000000000000000000000000001661070d565b606460405163229274e360e01b815260206004820152601b60248201527f5377617020616d6f756e742065786365656473207265736572766500000000006044820152fd5b606460405163229274e360e01b815260206004820152600d60248201527f506f6f6c20697320656d707479000000000000000000000000000000000000006044820152fd5b5082156106a0565b60646040517f0d3603a200000000000000000000000000000000000000000000000000000000815260206004820152601b60248201527f536c6970706167653a20616d6f756e744f757420746f6f206c6f7700000000006044820152fd5b508515610693565b50346100e25760203660031901126100e257600435610b046113b9565b8015610eca576001600160a01b037f0000000000000000000000000000000000000000000000000000000000000000166040517f70a08231000000000000000000000000000000000000000000000000000000008152336004820152602081602481855afa8015610ebf5783918591610e86575b5010610e4157610b8782610fe0565b9190926002546003549285158015610e39575b610df4578186118015610deb575b610da657803b15610da2576040517f79cc6790000000000000000000000000000000000000000000000000000000008152336004820152602481018490529087908290604490829084905af180156104a057610d84575b5083610c0e86610c14936110e0565b936110e0565b6002839055600381905560405163a9059cbb60e01b81523360048201526024810186905290926001600160a01b037f0000000000000000000000000000000000000000000000000000000000000000169290916020816044818b885af1801561047857610d67575b5060405163a9059cbb60e01b8152336004820152602481018690526001600160a01b037f00000000000000000000000000000000000000000000000000000000000000001694906020816044818c8a5af1801561038b579260019694927fbacbf94957af07c8118b7aadf9c609f02e0874691baabe727f80412f65df329f928b979560409c50610d4a575b508a51918252602082018a905260408201899052606082019390935260808101929092524260a08301523360c0830152309160e090a45582519182526020820152f35b610d629060203d602011610384576103778183610fa8565b610d07565b610d7f9060203d602011610384576103778183610fa8565b610c7c565b610c0e8688610d98610c14959a8995610fa8565b9893505050610bff565b8680fd5b606460405163229274e360e01b815260206004820152601560248201527f496e73756666696369656e7420526573657276657300000000000000000000006044820152fd5b50838511610ba8565b6064604051633b08b6c760e11b815260206004820152601760248201527f43616c63756c61746564207a65726f20616d6f756e74730000000000000000006044820152fd5b508415610b9a565b6064604051633b08b6c760e11b815260206004820152601b60248201527f4e6f7420656e6f756768206c697175696469747920746f6b656e7300000000006044820152fd5b9150506020813d602011610eb7575b81610ea260209383610fa8565b81010312610eb35782905138610b78565b8380fd5b3d9150610e95565b6040513d86823e3d90fd5b604051633b08b6c760e11b815260206004820152601560248201527f5a65726f204c697175696469747920546f6b656e7300000000000000000000006044820152606490fd5b50346100e257806003193601126100e25760206040516001600160a01b037f0000000000000000000000000000000000000000000000000000000000000000168152f35b50346100e25760203660031901126100e2576040610f73600435610fe0565b82519182526020820152f35b905034610fa45781600319360112610fa4576040906002546003549082526020820152f35b5080fd5b90601f8019910116810190811067ffffffffffffffff821117610fca57604052565b634e487b7160e01b600052604160045260246000fd5b908115610eca5760025460035492604051906318160ddd60e01b82526020826004816001600160a01b037f0000000000000000000000000000000000000000000000000000000000000000165afa9182156110d4576000926110a0575b50811561105b57611052828261105895611318565b94611318565b90565b6064604051633b08b6c760e11b815260206004820152601460248201527f5a65726f204c5020546f74616c20537570706c790000000000000000000000006044820152fd5b90916020823d6020116110cc575b816110bb60209383610fa8565b810103126100e2575051903861103d565b3d91506110ae565b6040513d6000823e3d90fd5b919082039182116110ed57565b634e487b7160e01b600052601160045260246000fd5b9081602091031261044e5751801515810361044e5790565b919082018092116110ed57565b818102929181159184041417156110ed57565b8115611145570490565b634e487b7160e01b600052601260045260246000fd5b6001600160a01b03807f0000000000000000000000000000000000000000000000000000000000000000169216808314809181156112e5575b50156112875781156104ab5760025493600354938260001461128157506001600160a01b037f000000000000000000000000000000000000000000000000000000000000000016945b821561127b5793925b84151580611272575b1561122c576001546127100361271081116110ed576112146127109161122693611128565b0461121f818761111b565b9085611318565b93929190565b60405163229274e360e01b815260206004820152601060248201527f496e76616c6964207265736572766573000000000000000000000000000000006044820152606490fd5b508315156111ef565b926111e6565b946111dd565b60646040517f0b5faca000000000000000000000000000000000000000000000000000000000815260206004820152600d60248201527f496e76616c696420746f6b656e000000000000000000000000000000000000006044820152fd5b90506001600160a01b037f0000000000000000000000000000000000000000000000000000000000000000161438611194565b9181830291600019818509938380861095039480860395146113ac57848311156113935790829109816000038216809204600281600302188082026002030280820260020302808202600203028082026002030280820260020302809102600203029360018380600003040190848311900302920304170290565b82634e487b71600052156003026011186020526024601cfd5b505090611058925061113b565b6002600054146113ca576002600055565b7f3ee5aeb50000000000000000000000000000000000000000000000000000000060005260046000fd5b8115801561140e575b61122c576110589261040991611128565b5082156113fd565b600181111561105857806001700100000000000000000000000000000000831015611539575b600482680100000000000000006114eb94101561152c575b64010000000081101561151f575b62010000811015611512575b610100811015611506575b60108110156114fa575b10156114f2575b60030260011c61149a818461113b565b0160011c6114a8818461113b565b0160011c6114b6818461113b565b0160011c6114c4818461113b565b0160011c6114d2818461113b565b0160011c6114e0818461113b565b0160011c809261113b565b8111900390565b60011b61148a565b811c9160021b91611483565b60081c91811b91611479565b60101c9160081b9161146e565b60201c9160101b91611462565b60401c9160201b91611454565b5050608081901c6801000000000000000061143c56fea2646970667358221220412c57e80c2cb64aeaf03aac0d1b812395edf2257df53c63a3d077005551d90a64736f6c634300081c003360806040523461038557610e53803803806100198161038a565b9283398101906040818303126103855780516001600160401b03811161038557826100459183016103af565b60208201519092906001600160401b0381116103855761006592016103af565b81516001600160401b03811161029057600354600181811c9116801561037b575b602082101461027057601f8111610316575b50602092601f82116001146102b157928192936000926102a6575b50508160011b916000199060031b1c1916176003555b80516001600160401b03811161029057600454600181811c91168015610286575b602082101461027057601f811161020b575b50602091601f82116001146101a75791819260009261019c575b50508160011b916000199060031b1c1916176004555b33156101865760058054336001600160a01b03198216811790925560405191906001600160a01b03167f8be0079c531659141344cd1fd0a4f28419497f9722a3daafe3b4186f6b6457e0600080a3610a38908161041b8239f35b631e4fbdf760e01b600052600060045260246000fd5b015190503880610116565b601f198216926004600052806000209160005b8581106101f3575083600195106101da575b505050811b0160045561012c565b015160001960f88460031b161c191690553880806101cc565b919260206001819286850151815501940192016101ba565b60046000527f8a35acfbc15ff81a39ae7d344fd709f28e8600b4aa8c65c6b64bfe7fe36bd19b601f830160051c81019160208410610266575b601f0160051c01905b81811061025a57506100fc565b6000815560010161024d565b9091508190610244565b634e487b7160e01b600052602260045260246000fd5b90607f16906100ea565b634e487b7160e01b600052604160045260246000fd5b0151905038806100b3565b601f198216936003600052806000209160005b8681106102fe57508360019596106102e5575b505050811b016003556100c9565b015160001960f88460031b161c191690553880806102d7565b919260206001819286850151815501940192016102c4565b60036000527fc2575a0e9e593c00f959f8c92f12db2869c3395a3b0502d05e2516446f71f85b601f830160051c81019160208410610371575b601f0160051c01905b8181106103655750610098565b60008155600101610358565b909150819061034f565b90607f1690610086565b600080fd5b6040519190601f01601f191682016001600160401b0381118382101761029057604052565b81601f82011215610385578051906001600160401b038211610290576103de601f8301601f191660200161038a565b92828452602083830101116103855760005b82811061040557505060206000918301015290565b806020809284010151828287010152016103f056fe608080604052600436101561001357600080fd5b60003560e01c90816306fdde031461066257508063095ea7b31461057e57806318160ddd1461056057806323b872dd14610528578063313ce5671461050c57806340c10f191461043a57806342966c681461041d57806370a08231146103e3578063715018a61461037b57806379cc6790146103495780638da5cb5b1461032257806395d89b4114610201578063a9059cbb146101d0578063dd62ed3e146101785763f2fde38b146100c457600080fd5b34610173576020366003190112610173576001600160a01b036100e561077e565b6100ed61093f565b168015610144576001600160a01b036005548273ffffffffffffffffffffffffffffffffffffffff19821617600555167f8be0079c531659141344cd1fd0a4f28419497f9722a3daafe3b4186f6b6457e0600080a3005b7f1e4fbdf700000000000000000000000000000000000000000000000000000000600052600060045260246000fd5b600080fd5b346101735760403660031901126101735761019161077e565b6001600160a01b036101a1610794565b911660005260016020526001600160a01b03604060002091166000526020526020604060002054604051908152f35b34610173576040366003190112610173576101f66101ec61077e565b6024359033610877565b602060405160018152f35b346101735760003660031901126101735760405160006004548060011c90600181168015610318575b602083108114610304578285529081156102e85750600114610291575b50819003601f01601f191681019067ffffffffffffffff82118183101761027b5761027782918260405282610735565b0390f35b634e487b7160e01b600052604160045260246000fd5b905060046000527f8a35acfbc15ff81a39ae7d344fd709f28e8600b4aa8c65c6b64bfe7fe36bd19b6000905b8282106102d257506020915082010182610247565b60018160209254838588010152019101906102bd565b90506020925060ff191682840152151560051b82010182610247565b602484634e487b7160e01b81526022600452fd5b91607f169161022a565b346101735760003660031901126101735760206001600160a01b0360055416604051908152f35b346101735760403660031901126101735761037961036561077e565b602435906103748233836107aa565b610981565b005b346101735760003660031901126101735761039461093f565b60006001600160a01b0360055473ffffffffffffffffffffffffffffffffffffffff198116600555167f8be0079c531659141344cd1fd0a4f28419497f9722a3daafe3b4186f6b6457e08280a3005b34610173576020366003190112610173576001600160a01b0361040461077e565b1660005260006020526020604060002054604051908152f35b346101735760203660031901126101735761037960043533610981565b346101735760403660031901126101735761045361077e565b6001600160a01b036024359161046761093f565b169081156104dd576002548181018091116104c7576002557fddf252ad1be2c89b69c2b068fc378daa952ba7f163c4a11628f55a4df523b3ef602060009284845283825260408420818154019055604051908152a3602060405160018152f35b634e487b7160e01b600052601160045260246000fd5b7fec442f0500000000000000000000000000000000000000000000000000000000600052600060045260246000fd5b3461017357600036600319011261017357602060405160128152f35b34610173576060366003190112610173576101f661054461077e565b61054c610794565b6044359161055b8333836107aa565b610877565b34610173576000366003190112610173576020600254604051908152f35b346101735760403660031901126101735761059761077e565b602435903315610633576001600160a01b031690811561060457336000526001602052604060002082600052602052806040600020556040519081527f8c5be1e5ebec7d5bd14f71427d1e84f3dd0314c0f7b2291e5b200ac8c7c3b92560203392a3602060405160018152f35b7f94280d6200000000000000000000000000000000000000000000000000000000600052600060045260246000fd5b7fe602df0500000000000000000000000000000000000000000000000000000000600052600060045260246000fd5b346101735760003660031901126101735760006003548060011c9060018116801561072b575b602083108114610304578285529081156102e857506001146106d45750819003601f01601f191681019067ffffffffffffffff82118183101761027b5761027782918260405282610735565b905060036000527fc2575a0e9e593c00f959f8c92f12db2869c3395a3b0502d05e2516446f71f85b6000905b82821061071557506020915082010182610247565b6001816020925483858801015201910190610700565b91607f1691610688565b91909160208152825180602083015260005b818110610768575060409293506000838284010152601f8019910116010190565b8060208092870101516040828601015201610747565b600435906001600160a01b038216820361017357565b602435906001600160a01b038216820361017357565b6001600160a01b0390929192169182600052600160205260406000206001600160a01b0382166000526020526040600020549260001984106107ed575b50505050565b828410610838578015610633576001600160a01b038216156106045760005260016020526001600160a01b0360406000209116600052602052604060002091039055388080806107e7565b506001600160a01b0383917ffb8f41b2000000000000000000000000000000000000000000000000000000006000521660045260245260445260646000fd5b6001600160a01b0316908115610910576001600160a01b03169182156104dd5760008281528060205260408120548281106108f65791604082827fddf252ad1be2c89b69c2b068fc378daa952ba7f163c4a11628f55a4df523b3ef958760209652828652038282205586815280845220818154019055604051908152a3565b60649363391434e360e21b83949352600452602452604452fd5b7f96c6fd1e00000000000000000000000000000000000000000000000000000000600052600060045260246000fd5b6001600160a01b0360055416330361095357565b7f118cdaa7000000000000000000000000000000000000000000000000000000006000523360045260246000fd5b6001600160a01b03168015610910576000918183528260205260408320548181106109e957817fddf252ad1be2c89b69c2b068fc378daa952ba7f163c4a11628f55a4df523b3ef926020928587528684520360408620558060025403600255604051908152a3565b839263391434e360e21b60649552600452602452604452fdfea26469706673582212207ee95c070ea5abe6e2b7c90c7debfeb013b1cae29b4a164cb6d225e3f1dcd4a764736f6c634300081c0033",
  "linkReferences": {},
  "deployedLinkReferences": {}
}