{
  "_format": "hh-sol-artifact-1",
  "contractName": "ERC20Faucet",
  "sourceName": "contracts/faucet/Faucet.sol",
  "abi": [
    {
      "inputs": [
        {
          "internalType": "address",
          "name": "_tokenAddress",
          "type": "address"
        },
        {
          "internalType": "uint256",
          "name": "_lockTime",
          "type": "uint256"
        },
        {
          "internalType": "uint256",
          "name": "_withdrawalAmount",
          "type": "uint256"
        }
      ],
      "stateMutability": "nonpayable",
      "type": "constructor"
    },
    {
      "inputs": [
        {
          "internalType": "address",
          "name": "tokenAddress",
          "type": "address"
        },
        {
          "internalType": "uint256",
          "name": "requestedAmount",
          "type": "uint256"
        },
        {
          "internalType": "uint256",
          "name": "availableBalance",
          "type": "uint256"
        },
        {
          "internalType": "string",
          "name": "description",
          "type": "string"
        }
      ],
      "name": "Faucet__InsufficientFunds",
      "type": "error"
    },
    {
      "inputs": [
        {
          "internalType": "address",
          "name": "tokenAddress",
          "type": "address"
        },
        {
          "internalType": "uint256",
          "name": "lastRequestTime",
          "type": "uint256"
        },
        {
          "internalType": "uint256",
          "name": "minWaitTime",
          "type": "uint256"
        },
        {
          "internalType": "uint256",
          "name": "currentTime",
          "type": "uint256"
        },
        {
          "internalType": "string",
          "name": "description",
          "type": "string"
        }
      ],
      "name": "Faucet__InsufficientTimeElapsed",
      "type": "error"
    },
    {
      "inputs": [
        {
          "internalType": "address",
          "name": "tokenAddress",
          "type": "address"
        },
        {
          "internalType": "address",
          "name": "recipientAddress",
          "type": "address"
        },
        {
          "internalType": "string",
          "name": "description",
          "type": "string"
        }
      ],
      "name": "Faucet__InvalidAddress",
      "type": "error"
    },
    {
      "inputs": [
        {
          "internalType": "address",
          "name": "owner",
          "type": "address"
        }
      ],
      "name": "OwnableInvalidOwner",
      "type": "error"
    },
    {
      "inputs": [
        {
          "internalType": "address",
          "name": "account",
          "type": "address"
        }
      ],
      "name": "OwnableUnauthorizedAccount",
      "type": "error"
    },
    {
      "inputs": [],
      "name": "ReentrancyGuardReentrantCall",
      "type": "error"
    },
    {
      "anonymous": false,
      "inputs": [
        {
          "indexed": true,
          "internalType": "address",
          "name": "faucet",
          "type": "address"
        },
        {
          "indexed": true,
          "internalType": "address",
          "name": "token",
          "type": "address"
        },
        {
          "indexed": false,
          "internalType": "uint256",
          "name": "lockTime",
          "type": "uint256"
        },
        {
          "indexed": false,
          "internalType": "uint256",
          "name": "withdrawalAmount",
          "type": "uint256"
        },
        {
          "indexed": false,
          "internalType": "uint256",
          "name": "timestamp",
          "type": "uint256"
        }
      ],
      "name": "Faucet__Created",
      "type": "event"
    },
    {
      "anonymous": false,
      "inputs": [
        {
          "indexed": true,
          "internalType": "address",
          "name": "from",
          "type": "address"
        },
        {
          "indexed": true,
          "internalType": "address",
          "name": "to",
          "type": "address"
        },
        {
          "indexed": true,
          "internalType": "uint256",
          "name": "amount",
          "type": "uint256"
        },
        {
          "indexed": false,
          "internalType": "uint256",
          "name": "timestamp",
          "type": "uint256"
        }
      ],
      "name": "Faucet__ReceivedFunds",
      "type": "event"
    },
    {
      "anonymous": false,
      "inputs": [
        {
          "indexed": true,
          "internalType": "address",
          "name": "from",
          "type": "address"
        },
        {
          "indexed": true,
          "internalType": "address",
          "name": "to",
          "type": "address"
        },
        {
          "indexed": true,
          "internalType": "uint256",
          "name": "amount",
          "type": "uint256"
        }
      ],
      "name": "Faucet__Withdraw",
      "type": "event"
    },
    {
      "anonymous": false,
      "inputs": [
        {
          "indexed": true,
          "internalType": "address",
          "name": "previousOwner",
          "type": "address"
        },
        {
          "indexed": true,
          "internalType": "address",
          "name": "newOwner",
          "type": "address"
        }
      ],
      "name": "OwnershipTransferred",
      "type": "event"
    },
    {
      "inputs": [],
      "name": "getBalance",
      "outputs": [
        {
          "internalType": "uint256",
          "name": "",
          "type": "uint256"
        }
      ],
      "stateMutability": "view",
      "type": "function"
    },
    {
      "inputs": [],
      "name": "getLockTime",
      "outputs": [
        {
          "internalType": "uint256",
          "name": "",
          "type": "uint256"
        }
      ],
      "stateMutability": "view",
      "type": "function"
    },
    {
      "inputs": [
        {
          "internalType": "address",
          "name": "user",
          "type": "address"
        }
      ],
      "name": "getNextAccessTime",
      "outputs": [
        {
          "internalType": "uint256",
          "name": "",
          "type": "uint256"
        }
      ],
      "stateMutability": "view",
      "type": "function"
    },
    {
      "inputs": [],
      "name": "getToken",
      "outputs": [
        {
          "internalType": "address",
          "name": "",
          "type": "address"
        }
      ],
      "stateMutability": "view",
      "type": "function"
    },
    {
      "inputs": [],
      "name": "getWithdrawalAmount",
      "outputs": [
        {
          "internalType": "uint256",
          "name": "",
          "type": "uint256"
        }
      ],
      "stateMutability": "view",
      "type": "function"
    },
    {
      "inputs": [],
      "name": "owner",
      "outputs": [
        {
          "internalType": "address",
          "name": "",
          "type": "address"
        }
      ],
      "stateMutability": "view",
      "type": "function"
    },
    {
      "inputs": [],
      "name": "renounceOwnership",
      "outputs": [],
      "stateMutability": "nonpayable",
      "type": "function"
    },
    {
      "inputs": [
        {
          "internalType": "address",
          "name": "recipientAddress",
          "type": "address"
        }
      ],
      "name": "requestTokens",
      "outputs": [
        {
          "internalType": "bool",
          "name": "",
          "type": "bool"
        }
      ],
      "stateMutability": "nonpayable",
      "type": "function"
    },
    {
      "inputs": [
        {
          "internalType": "uint256",
          "name": "_lockTime",
          "type": "uint256"
        }
      ],
      "name": "setLockTime",
      "outputs": [],
      "stateMutability": "nonpayable",
      "type": "function"
    },
    {
      "inputs": [
        {
          "internalType": "uint256",
          "name": "_withdrawalAmount",
          "type": "uint256"
        }
      ],
      "name": "setWithdrawalAmount",
      "outputs": [],
      "stateMutability": "nonpayable",
      "type": "function"
    },
    {
      "inputs": [
        {
          "internalType": "address",
          "name": "newOwner",
          "type": "address"
        }
      ],
      "name": "transferOwnership",
      "outputs": [],
      "stateMutability": "nonpayable",
      "type": "function"
    },
    {
      "inputs": [],
      "name": "withdraw",
      "outputs": [
        {
          "internalType": "bool",
          "name": "",
          "type": "bool"
        }
      ],
      "stateMutability": "nonpayable",
      "type": "function"
    }
  ],
  "bytecode": "0x60803461012157601f610af838819003918201601f19168301916001600160401b03831184841017610126578084926060946040528339810103126101215780516001600160a01b03811691908290036101215760406020820151910151331561010b5760008054336001600160a01b0319821681178355604051949290916001600160a01b0316907f8be0079c531659141344cd1fd0a4f28419497f9722a3daafe3b4186f6b6457e09080a3600180558360018060a01b031960025416176002558060035581600455825260208201524260408201527f7f23481daaf3708cd8cbd64c8c47348768486361a9f3ce312e49363b7e2b0c4160603092a36040516109bb908161013d8239f35b631e4fbdf760e01b600052600060045260246000fd5b600080fd5b634e487b7160e01b600052604160045260246000fdfe608080604052600436101561001357600080fd5b60003560e01c90816312065fe01461083757508063168ee33a1461080a57806321df0da7146107e3578063303c0ebe146107a65780633ccfd60b1461061f578063580f390414610250578063715018a6146101ea5780638da5cb5b146101c3578063ae04d45d14610196578063c0a4d64d14610178578063dbd27a1e1461015a5763f2fde38b146100a357600080fd5b34610155576020366003190112610155576004356001600160a01b038116809103610155576100d0610943565b8015610126576001600160a01b036000548273ffffffffffffffffffffffffffffffffffffffff19821617600055167f8be0079c531659141344cd1fd0a4f28419497f9722a3daafe3b4186f6b6457e0600080a3005b7f1e4fbdf700000000000000000000000000000000000000000000000000000000600052600060045260246000fd5b600080fd5b34610155576000366003190112610155576020600454604051908152f35b34610155576000366003190112610155576020600354604051908152f35b34610155576020366003190112610155576101af610908565b6101b7610943565b60043560035560018055005b346101555760003660031901126101555760206001600160a01b0360005416604051908152f35b3461015557600036600319011261015557610203610943565b60006001600160a01b03815473ffffffffffffffffffffffffffffffffffffffff1981168355167f8be0079c531659141344cd1fd0a4f28419497f9722a3daafe3b4186f6b6457e08280a3005b34610155576020366003190112610155576004356001600160a01b038116908181036101555761027e610908565b8115610582576001600160a01b03600254166040516370a0823160e01b8152306004820152602081602481855afa9081156103bf5760009161054d575b506004548082106104b757505082600052600560205260406000205442106103e1575060035442018042116103cb576103439160209184600052600583526040600020556001600160a01b036002541660045491600060405180968195829463a9059cbb60e01b845260048401602090939291936001600160a01b0360408201951681520152565b03925af180156103bf57610392575b50600454906040514281527f7a17b312a342d952ebc4b79335e9c2afb950269b4b9e0c5170d89fe080cc827d60203092a460018055602060405160018152f35b6103b39060203d6020116103b8575b6103ab81836108b8565b8101906108f0565b610352565b503d6103a1565b6040513d6000823e3d90fd5b634e487b7160e01b600052601160045260246000fd5b6101249083600052600560205260406000205460035490604051927fccc8333d00000000000000000000000000000000000000000000000000000000845260048401526024830152604482015242606482015260a06084820152604260a48201527f496e73756666696369656e742074696d6520656c61707365642073696e63652060c48201527f6c617374207769746864726177616c202d2074727920616761696e206c61746560e48201527f722e000000000000000000000000000000000000000000000000000000000000610104820152fd5b60e49350604051927f981e761a00000000000000000000000000000000000000000000000000000000845260048401526024830152604482015260806064820152603360848201527f496e73756666696369656e742066756e647320696e2066617563657420666f7260a48201527f207769746864726177616c20726571756573740000000000000000000000000060c4820152fd5b906020823d60201161057a575b81610567602093836108b8565b81010312610577575051846102bb565b80fd5b3d915061055a565b60c4826001600160a01b036002541690604051917fae663c670000000000000000000000000000000000000000000000000000000083526004830152602482015260606044820152602460648201527f526563697069656e74206d757374206e6f742062652061207a65726f2061636360848201527f6f756e740000000000000000000000000000000000000000000000000000000060a4820152fd5b3461015557600036600319011261015557610638610908565b610640610943565b6001600160a01b0360025416604051906370a0823160e01b8252306004830152602082602481845afa9182156103bf57600092610770575b5060405163a9059cbb60e01b81523360048201526024810192909252602090829081600081604481015b03925af180156103bf57610753575b50602460206001600160a01b0360025416604051928380926370a0823160e01b82523060048301525afa80156103bf57600090610720575b60405160209133307f53117dbc9b0b6c8c52605d1009a38e369b99072b55d57746d8c8fde9eefe961d600080a46001805560018152f35b506020813d60201161074b575b8161073a602093836108b8565b8101031261015557602090516106e9565b3d915061072d565b61076b9060203d6020116103b8576103ab81836108b8565b6106b1565b91506020823d60201161079e575b8161078b602093836108b8565b81010312610155579051906106a2610678565b3d915061077e565b34610155576020366003190112610155576004356001600160a01b0381168091036101555760005260056020526020604060002054604051908152f35b346101555760003660031901126101555760206001600160a01b0360025416604051908152f35b3461015557602036600319011261015557610823610908565b61082b610943565b60048035905560018055005b34610155576000366003190112610155576020816024816001600160a01b03600254166370a0823160e01b82523060048301525afa80156103bf57600090610885575b602090604051908152f35b506020813d6020116108b0575b8161089f602093836108b8565b81010312610155576020905161087a565b3d9150610892565b90601f8019910116810190811067ffffffffffffffff8211176108da57604052565b634e487b7160e01b600052604160045260246000fd5b90816020910312610155575180151581036101555790565b600260015414610919576002600155565b7f3ee5aeb50000000000000000000000000000000000000000000000000000000060005260046000fd5b6001600160a01b0360005416330361095757565b7f118cdaa7000000000000000000000000000000000000000000000000000000006000523360045260246000fdfea26469706673582212209cd6ae9c086d1398660332c786798afb57eed9e7dcff90446c02793b05c5d06564736f6c634300081c0033",
  "linkReferences": {},
  "deployedLinkReferences": {}
}